:020000041000EA
:10100000500500201D100010000000009D10001071
:101010000018040000010000000000801149124A7D
:10102000124B00F018F8124880471249124A134B2D
:1010300000F011F81249134A134B00F00CF8134951
:10104000134A0020521A02DD043A8850FCDC114891
:101050008047114880479B1A03DD043BC858D05095
:10106000FBDC7047803E00100C0000205001002087
:10107000A1100010C43F001050050020680500209A
:10108000DC3F00106805002068050020680500208E
:10109000242E0020693D00108D3C0010FEE700006A
:1010A00080B500AF02F026FD02F072FDBD4680BDA6
:1010B00080B500AF2A4B1A68FF231B0213401A0A9F
:1010C000284B1A60274B1B68002B37D0244B1B681A
:1010D000FF221A40244B1A60214BDB690322134084
:1010E0001A02214B1B681A431F4B1A601C4BDA690A
:1010F00080239B0013400ED11A4B1B689A021A4B97
:101100001B68D3181948191C00F018FB031C1A019E
:10111000174B1A6021E000F02FF8031C9901114BC6
:101120001B689A02104B1B68D318081C191C00F08E
:1011300005FB031C1A010E4B1A600EE0084BDA691E
:1011400080239B00134003D1094B0A4A1A6004E034
:1011500000F012F8021C064B1A60BD4680BDC04666
:1011600000030140680500206C05002000001BB74B
:10117000FC3F0020006CDC0280B500AF014B181C66
:10118000BD4680BD002D310190B585B000AFF8603F
:101190007A600B23FB180A1C1A700B23FB181B78B0
:1011A0009B08DBB2181C0B23FB181B789B08DBB2D7
:1011B0001A1CFB6804329200D3580B22BA1812781A
:1011C00003210A40D200111CFC228A40D2431A405B
:1011D000111CFB68021D9200D150FB685B6F0B2253
:1011E000BA1812785200111C03228A40D2431A40C6
:1011F000FB685A670B23FB181B78DB08DBB2181C53
:101200000B23FB181B78DB08DBB21A1CFB681032BF
:101210009200D3580B22BA18127807210A40920084
:10122000111C04228A40D2431A40111CFB68021C84
:1012300010329200D1500B23FB181B78DB08DBB275
:10124000181C0B23FB181B78DB08DBB21A1CFB688D
:1012500010329200D2587B685B781C1C0B23FB1861
:101260001B7807210B409B009C40231C1A43111C38
:10127000FB68021C10329200D150FB68204A934256
:101280000BD1FB681B6E0B22BA181278012191401A
:101290000A1CD2431A40FB681A667B681B78DBB2D3
:1012A0005BB2002B07DA7B685A680B23FB181B78AC
:1012B0009A40FB685A600B23FB181B789B08DBB233
:1012C000181C0B23FB181B789B08DBB21A1CFB684D
:1012D00004329200D2587B681B781C1C0B23FB182D
:1012E0001B7803210B40DB009C40231C1A43111C7C
:1012F000FB68021D9200D150BD4605B090BDC046AE
:101300000002044080B500AF024BC3225A62BD46C2
:1013100080BDC0460000014080B500AF054BC02233
:101320005A62C046034B5B6A04221340FAD1BD46A1
:1013300080BDC0460000014080B586B000AF786037
:10134000FFF7EAFF7B689B79302B53D0FFF714FF40
:10135000021E494B9A4209D9484A48499023CB5A20
:101360009BB240210B4399B29023D152434A434947
:101370009023CB5A9BB29BB2191C322399430B1C6E
:1013800099B27B689B799BB20B439BB299B2902335
:10139000D1523B4B02229A623A4B3A4A52693A493D
:1013A0000A405A61394B7B6100E0C0467B69013BD2
:1013B0007B617B69002BF8D1324B324A5269C021E4
:1013C00089040A435A61C0462E4B5A6980235B0444
:1013D0001340F9D12E4B3B6100E0C0463B69013B15
:1013E0003B613B69002BF8D1254B1B6A022213405D
:1013F000CFD109E0214A21499023CB5A9BB2302119
:101400000B4399B29023D1521C4A7B68DB7999B285
:101410008C23D1527B68DB79002B09D11D4BFB60FB
:1014200000E0C046FB68013BFB60FB68002BF8D185
:10143000144B144AD26918490A40796889880A43CA
:10144000DA61104A0F4B1B68144919407B68DB684E
:1014500019437B689B680B431360FFF753FF7B685E
:101460009B781A1C7B681B88101C191C00F032F832
:10147000BD4606B080BDC046002D310100100140C0
:101480003800014000030140FFFFFFFD1A02000089
:101490007D0A0000A02E6300FFFDFFFFFFFFF0FFAD
:1014A00080B582B000AF7860FFF736FF084B084A7E
:1014B00011697A680A431A61C046054B1A6880238D
:1014C000DB051340F9D1FFF71DFFBD4602B080BD1B
:1014D0000003014080B584B000AF78603960FFF749
:1014E0001BFF274B1A68FF231B0213401B0AFB60DC
:1014F000234B234AD26903218A43111C3A68120AFA
:101500000A43DA611E4B1E4A12681E4911403A68AE
:10151000FF2002400A431C490A431A60C046184B88
:101520001A688023DB051340F9D1FA687B689A4278
:1015300006D8FA687B68101C191C00F053F805E007
:10154000FA687B68101C191C00F022F80C4B0C4A3E
:1015500012680E4911407A6812020A430A490A4386
:101560001A60C046064B1A688023DB051340F9D188
:10157000FFF7C8FEFFF79CFDBD4604B080BDC04626
:101580000003014000FF0FC00000F03FFF000FC04C
:1015900080B582B000AF7860396014E07B689B084A
:1015A0007B600D4B0C4A12680C4911407A6812029C
:1015B0000A430B490A431A60C046074B1A68802346
:1015C000DB051340F9D13B689A007B689A42E5D36A
:1015D000BD4602B080BDC04600030140FF000FC001
:1015E0000000F03F80B582B000AF7860396019E04C
:1015F0007B68002B01D101237B607B689B007B60B3
:101600000C4B0C4A12680C4911407A6812020A43CA
:101610000A490A431A60C046064B1A688023DB0554
:101620001340F9D17B689A003B689A42E0D3BD46EB
:1016300002B080BD00030140FF000FC00000F03F7A
:1016400080B582B000AF78607B6880225200DA609B
:10165000BD4602B080BDC04680B582B000AF7860A4
:101660007B68094A934203D10420FFF719FF08E081
:101670007B68064A934204D180239B02181CFFF723
:101680000FFFBD4602B080BD000004480040044882
:1016900080B582B000AF78607B68181CFFF7DCFF74
:1016A000BD4602B080BDC04680B584B000AF786052
:1016B0000A1CFB1C1A707B68181CFFF7E9FF7B688B
:1016C000181CFFF7BDFF7B681B68FB60FB68074ABF
:1016D0001340FB60FB1C1B789B03FA681343FB6001
:1016E0007B68FA681A60BD4604B080BDFF3FFFFF0B
:1016F00080B582B000AF7860081C111CFB1C021C76
:101700001A70BB1C0A1C1A707B685B6FFA1C12787B
:101710005200111C03228A40D2431A407B685A6748
:101720007B685A6FBB1C1B78F91C097849008B40F9
:101730001A437B685A67BD4602B080BD80B588B049
:1017400000AF78603960EFF310837B617B693B61A8
:1017500072B63B69FB610C4B04225A630A4B7A68F0
:101760001A62094B3A685A62074B9B6ABB61FB6974
:10177000FB60FB68BB60BB6883F31088BB69181C07
:10178000BD4608B080BDC0460000034080B500AF34
:10179000BD4680BD80B582B000AF78607B68802296
:1017A0005200DA60BD4602B080BDC04680B582B04E
:1017B00000AF78607B685B7B01225340DBB2002B7B
:1017C0000FD07B689A687B681B7B101C191CFFF785
:1017D0006BFF7B689B68181CFFF7DCFF7B680122AE
:1017E0005A730023181CBD4602B080BD80B584B07A
:1017F00000AFF860B9607A60FB68043BFB60FB688F
:10180000802252041A60FB68043BFB60BA68FB68E4
:101810001A60FB68043BFB60084AFB681A60FB68BF
:10182000143BFB607A68FB681A60FB68203BFB6036
:10183000FB68181CBD4604B080BDC04641180010AE
:1018400080B582B000AF00237B60074B1B6801337B
:1018500001D072B6FEE772B6C0467B68002BFCD0A2
:10186000BD4602B080BDC0466005002080B500AF17
:10187000BD4680BD00000000000000000000000028
:101880000B4A13681868203080F30988022080F31F
:101890001488BFF36F8F3FBCAE4608BC04BC62B671
:1018A0001847C046C046C046C046C046C046C046AF
:1018B000A02C0020C046C046C046C046C046C04618
:1018C00080B500AF0E4B0E4A1268FF2109040A438F
:1018D0001A600B4B0A4A1268FF2109060A431A6074
:1018E00000F096F8074B00221A60FFF7C9FF01F0DD
:1018F000F1FAFFF7A5FF0023181CBD4680BDC046C6
:1019000020ED00E06005002080B500AF044B802290
:1019100052051A60BFF34F8FBFF36F8FBD4680BD76
:1019200004ED00E080B500AF72B6054B1B685A1C91
:10193000034B1A60BFF34F8FBFF36F8FBD4680BD5F
:101940006005002080B500AF084B1B68002B01D15B
:1019500072B6FEE7054B1B685A1E044B1A60034B18
:101960001B68002B00D162B6BD4680BD600500201B
:10197000EFF3108072B67047181CC04680F31088D1
:101980007047C0460000000000000000000000009A
:10199000EFF309800E4B1A6820381060F0C04446FF
:1019A0004D4656465F46F0C008B572B601F092FA51
:1019B00062B60CBC116808681030F0C8A046A94691
:1019C000B246BB4680F309882038F0C81847C046A5
:1019D000A02C0020C046C046C046C046C046C046F7
:1019E00080B582B000AFFFF7C3FF031C7B6001F03E
:1019F000C1F9031E03D0054B802252051A607B6893
:101A0000181CFFF7BBFFBD4602B080BD04ED00E02F
:101A100098B500AF0A4B00221A600A4B00221A60E8
:101A2000094C0A4B1B68181C0A21FFF787FE031C90
:101A3000013B2360024B07221A60BD4698BDC04699
:101A400010E000E018E000E014E000E0FC3F0020BF
:101A500080B586B000AF78600023FB6001F0E4F849
:101A60004B4B1B68002B01D100F0ECF8494B1B6875
:101A70007A68134000D07EE07B68002B12D00822E9
:101A80007B689B187B607B68072213400AD07B68C9
:101A90000722934308337B607B680722134001D001
:101AA00072B6FEE77B68002B65D03B4B1B687A68FB
:101AB0009A4260D8394B3B61384B1B687B6104E02C
:101AC0007B693B617B691B687B617B695A687B68CA
:101AD0009A4203D27B691B68002BF1D12C4B1B6807
:101AE0007A699A4247D03B691B6808229B18FB60C1
:101AF0007B691A683B691A607B695A687B68D21AED
:101B000008235B009A4216D97A697B68D318BB60B8
:101B1000BB680722134001D072B6FEE77B695A68A2
:101B20007B68D21ABB685A607B697A685A60BB6866
:101B3000181C00F0E7F8184B1A687B695B68D21A2A
:101B4000154B1A60144B1A68154B1B689A4203D246
:101B5000114B1A68124B1A607B695A680D4B1B684F
:101B60001A437B695A607B6900221A600D4B1B681F
:101B70005A1C0C4B1A6001F063F8FB6807221340F3
:101B800001D072B6FEE7FB68181CBD4606B080BDEA
:101B9000882C00209C2C00208C2C0020802C0020E5
:101BA000902C0020942C002080B584B000AF786089
:101BB0007B68FB607B68002B3AD008235B42FA68A5
:101BC000D318FB60FB68BB60BB685A681A4B1B6884
:101BD000134001D172B6FEE7BB681B68002B01D031
:101BE00072B6FEE7BB685A68134B1B6813401FD0E0
:101BF000BB681B68002B1BD1BB685A680E4B1B6867
:101C0000DB431A40BB685A6001F00EF8BB685A68A3
:101C10000A4B1B68D218094B1A60BB68181C00F0ED
:101C200071F8074B1B685A1C054B1A6001F008F845
:101C3000BD4604B080BDC0469C2C00208C2C0020EA
:101C4000982C002080B584B000AF274BBB60274B99
:101C5000FB60FB68072213400CD0FB680733FB6076
:101C6000FB6807229343FB60BA68FB68D21A1F4BDC
:101C7000D318BB60FB687B601D4B7A681A601C4BF5
:101C800000225A607A68BB68D318FB600822FB68A0
:101C90009B1AFB60FB6807229343FB60FA68154BB5
:101CA0001A60144B1B6800225A60124B1B680022FA
:101CB0001A607B683B603B68FA68D21A3B685A60DE
:101CC0000C4B1A683B681A603B685A680A4B1A60EA
:101CD0003B685A68094B1A60094B802212061A6049
:101CE000BD4604B080BDC04610270000700500202E
:101CF000802C0020882C0020902C00208C2C002090
:101D00009C2C002080B584B000AF7860264BFB602F
:101D100002E0FB681B68FB60FB681A687B689A42FC
:101D2000F7D3FB68BB60FB685B68BA68D2187B6856
:101D30009A4208D1FB685A687B685B68D218FB68D6
:101D40005A60FB687B607B68BB607B685B68BA68D5
:101D5000D218FB681B689A4218D1FB681A68134BAB
:101D60001B689A420DD07B685A68FB681B685B68E9
:101D7000D2187B685A60FB681B681A687B681A6017
:101D800008E00A4B1A687B681A6003E0FB681A686F
:101D90007B681A60FA687B689A4202D0FB687A68AE
:101DA0001A60BD4604B080BD802C0020882C002025
:101DB00080B582B000AF78607B6808331A1C7B68FE
:101DC0005A607B68012252429A607B6808331A1C71
:101DD0007B68DA607B6808331A1C7B681A617B6851
:101DE00000221A60BD4602B080BDC04680B582B0F8
:101DF00000AF78607B6800221A61BD4602B080BDEA
:101E000080B584B000AF786039607B685B68FB6048
:101E10003B68FA685A60FB689A683B689A60FB689E
:101E20009B683A685A60FB683A689A603B687A68CF
:101E30001A617B681B685A1C7B681A60BD4604B037
:101E400080BDC04680B584B000AF786039603B6823
:101E50001B68BB60BB68013303D17B681B69FB60F7
:101E60000CE07B680833FB6002E0FB685B68FB60AA
:101E7000FB685B681A68BB689A42F6D9FB685A68C7
:101E80003B685A603B685B683A689A603B68FA68EE
:101E90009A60FB683A685A603B687A681A617B68A6
:101EA0001B685A1C7B681A60BD4604B080BDC046E2
:101EB00080B584B000AF78607B681B69FB607B688D
:101EC0005B687A6892689A607B689B687A685268F7
:101ED0005A60FB685A687B689A4203D17B689A68AB
:101EE000FB685A607B6800221A61FB681B685A1EF7
:101EF000FB681A60FB681B68181CBD4604B080BDF7
:101F000080B584B000AF786039607B68FB60FB68A7
:101F1000002B01D172B6FEE7FFF704FDFB681A68DB
:101F2000FB68D96BFB681B6C4B43D218FB689A604B
:101F3000FB6800229A63FB681A68FB685A60FB68BA
:101F40001A68FB68DB6B591EFB681B6C4B43D2188D
:101F5000FB68DA60FB684422FF219954FB68452244
:101F6000FF2199543B68002B0DD1FB681B69002BA6
:101F700013D0FB681033181C01F03CF8031E0CD082
:101F8000FFF7C2FC09E0FB681033181CFFF710FFD5
:101F9000FB682433181CFFF70BFFFFF7D3FC01236A
:101FA000181CBD4604B080BD90B58BB002AFF86080
:101FB000B960FB1D1A70FB68002B01D172B6FEE7F9
:101FC000FB68BA685343FB61BB68002B08D0F86913
:101FD000B968FFF7B3FB031C1A1EFB689A4201D1D4
:101FE000012300E00023002B01D172B6FEE7FB695C
:101FF00054331A1EFB699A4201D872B6FEE7FB6998
:102000005433181CFFF724FD031CBB61BB69002B74
:102010000ED0BB697B617B6954337B61F868B9681A
:102020007A69FB1D1C78BB690093231C00F006F83D
:10203000BB69181CBD4609B090BDC04680B584B0D0
:1020400000AFF860B9607A601A1CFB1C1A70BB689C
:10205000002B03D1BB69BA691A6002E0BB697A68D8
:102060001A60BB69FA68DA63BB69BA681A64BB694B
:10207000181C0121FFF744FFBB69FA1C502112789C
:102080005A54BB6900229A64BD4604B080BDC04664
:1020900080B58AB000AFF860B9607A603B60002319
:1020A0007B62FB683B623B6A002B01D172B6FEE7A4
:1020B000BB68002B03D13B6A1B6C002B01D10123B1
:1020C00000E00023002B01D172B6FEE73B68022B33
:1020D00003D13B6ADB6B012B01D1012300E000231C
:1020E000002B01D172B6FEE701F00AF9031E02D1FE
:1020F0007B68002B01D1012300E00023002B01D1DC
:1021000072B6FEE7FFF70EFC3B6A9A6B3B6ADB6B2D
:102110009A4202D33B68022B38D13B6A9B6BFB612E
:10212000396ABA683B68081C111C1A1C00F0E6F9F1
:10213000031CBB613B6A9B6C002B10D03B68022BDD
:1021400004D1FB69002B01D0C0461BE03B6A181C80
:1021500000F064FB031E15D0FFF7D6FB12E03B6ACC
:102160005B6A002B09D03B6A2433181C00F042FF45
:10217000031E07D0FFF7C8FB04E0BB69002B01D0AA
:10218000FFF7C2FBFFF7DEFB012360E07B68002B5B
:1021900003D1FFF7D7FB002359E07B6A002B06D160
:1021A0001023FB18181C00F081FF01237B62FFF74E
:1021B000C9FB00F039FDFFF7B5FB3B6A44229B5C8D
:1021C000DBB25BB2013303D13B6A44220021995454
:1021D0003B6A45229B5CDBB25BB2013303D13B6AB5
:1021E000452200219954FFF7ADFB1023FA183B1D3F
:1021F000101C191C00F06EFF031E1FD13B6A181C37
:1022000000F096FA031E12D03B6A10331A1C7B684A
:10221000101C191C00F0AEFE3B6A181C00F006FAF8
:1022200000F00EFD031E11D1FFF76EFB0EE03B6ABE
:10223000181C00F0FBF900F003FD63E73B6A181C73
:1022400000F0F4F900F0FCFC002300E05AE7181C51
:10225000BD460AB080BDC04680B58AB000AFF86008
:10226000B9607A603B60FB683B623B6A002B01D13E
:1022700072B6FEE7BB68002B03D13B6A1B6C002BD8
:1022800001D1012300E00023002B01D172B6FEE74B
:102290003B68022B03D13B6ADB6B012B01D101238D
:1022A00000E00023002B01D172B6FEE7FFF760FBD0
:1022B000031CFB613B6A9A6B3B6ADB6B9A4202D35D
:1022C0003B68022B55D11B23FB183A6A4521525C0F
:1022D0001A703B6A9B6B7B61396ABA683B68081C61
:1022E000111C1A1C00F00AF91B23FB181B785BB2A7
:1022F00001332AD13B6A9B6C002B14D03B68022B24
:1023000004D17B69002B01D0C0462FE03B6A181C2A
:1023100000F084FA031E29D07B68002B26D07B684E
:1023200001221A6022E03B6A5B6A002B1ED03B6AE6
:102330002433181C00F05EFE031E17D07B68002BB0
:1023400014D07B6801221A6010E01B23FB181B7855
:102350005BB27F2B01D172B6FEE71B23FB181B7803
:102360000133DBB2D9B23B6A4522995401237B6227
:1023700001E000237B62FB69181CFFF7FFFA7B6A10
:10238000181CBD460AB080BD80B58AB000AFF860A9
:10239000B9607A6000237B62FB683B623B6A002B7A
:1023A00001D172B6FEE7BB68002B03D13B6A1B6C00
:1023B000002B01D1012300E00023002B01D172B6D4
:1023C000FEE700F09DFF031E02D17B68002B01D1C8
:1023D000012300E00023002B01D172B6FEE7FFF7D6
:1023E000A1FA3B6A9B6BFB61FB69002B1AD03A6A2E
:1023F000BB68101C191C00F0F1F8FB695A1E3B6AFF
:102400009A633B6A1B69002B08D03B6A1033181C87
:1024100000F0F0FD031E01D0FFF776FAFFF792FA05
:10242000012366E07B68002B03D1FFF78BFA0023C2
:102430005FE07B6A002B06D11423FB18181C00F008
:1024400035FE01237B62FFF77DFA00F0EDFBFFF71D
:1024500069FA3B6A44229B5CDBB25BB2013303D175
:102460003B6A4422002199543B6A45229B5CDBB2C3
:102470005BB2013303D13B6A452200219954FFF737
:1024800061FA1423FA183B1D101C191C00F022FEDF
:10249000031E1FD13B6A181C00F034F9031E12D032
:1024A0003B6A24331A1C7B68101C191C00F062FD67
:1024B0003B6A181C00F0BAF800F0C2FB031E17D1EB
:1024C000FFF722FA14E03B6A181C00F0AFF800F0A6
:1024D000B7FB84E73B6A181C00F0A8F800F0B0FBDB
:1024E0003B6A181C00F00EF9031E01D0002300E027
:1024F00075E7181CBD460AB080BDC04680B586B0E1
:1025000000AFF860B9607A6000237B61FB689B6B69
:102510003B61FB681B6C002B0ED1FB681B68002B1A
:1025200052D1FB689B68181C00F006FF031C7B61FE
:10253000FB6800229A6047E07B68002B1BD1FB6898
:102540005968FB681B6CBA68081C111C1A1C01F046
:1025500031FCFB685A68FB681B6CD218FB685A6038
:10256000FB685A68FB689B689A422DD3FB681A681F
:10257000FB685A6028E0FB68D968FB681B6CBA6886
:10258000081C111C1A1C01F015FCFB68DA68FB68BA
:102590001B6C5B42D218FB68DA60FB68DA68FB6888
:1025A0001B689A4207D2FB689A68FB681B6C5B4207
:1025B000D218FB68DA607B68022B05D13B69002BDF
:1025C00002D03B69013B3B613B695A1CFB689A6343
:1025D0007B69181CBD4606B080BDC04680B582B080
:1025E00000AF786039607B681B6C002B1AD07B6869
:1025F000DA687B681B6CD2187B68DA607B68DA6803
:102600007B689B689A4203D37B681A687B68DA60B0
:102610007B68DA687B681B6C3968081C111C1A1C03
:1026200001F0C8FBBD4602B080BDC04680B584B095
:1026300000AF7860FFF776F90F23FB187A68452121
:10264000525C1A7023E07B689B6C002B08D07B687F
:10265000181C00F0E3F8031E11D000F09FFD0EE0FF
:102660007B685B6A002B09D07B682433181C00F060
:10267000C1FC031E03D000F091FD00E00DE00F232C
:10268000FB181B78013BDAB20F23FB181A700F23DB
:10269000FB181B785BB2002BD5DC7B684522FF2141
:1026A0009954FFF74FF9FFF73DF90E23FB187A68AD
:1026B0004421525C1A7016E07B681B69002B11D014
:1026C0007B681033181C00F095FC031E01D000F04D
:1026D00065FD0E23FB181B78013BDAB20E23FB18B5
:1026E0001A7000E005E00E23FB181B785BB2002B8C
:1026F000E2DC7B684422FF219954FFF723F9BD46B1
:1027000004B080BD80B584B000AF7860FFF70AF9EF
:102710007B689B6B002B02D10123FB6001E000234F
:10272000FB60FFF70FF9FB68181CBD4604B080BDC5
:1027300080B584B000AF7860FFF7F4F87B689A6BDF
:102740007B68DB6B9A4202D10123FB6001E000232E
:10275000FB60FFF7F7F8FB68181CBD4604B080BDAE
:1027600080B584B000AF786039600023FB6014E06E
:102770000D4BFA68D200D358002B0BD10A4BFA68E4
:10278000D2003968D150084AFB68DB00D3187A6858
:102790005A6005E0FB680133FB60FB68072BE7D953
:1027A000BD4604B080BDC046E42D002080B586B093
:1027B00000AFF860B9607A60FB687B61FFF7B2F840
:1027C0007B6944229B5CDBB25BB2013303D17B6942
:1027D0004422002199547B6945229B5CDBB25BB2A9
:1027E000013303D17B69452200219954FFF7AAF8F0
:1027F0007B699B6B002B09D17B692433191CBA6858
:102800007B68081C111C1A1C00F0D0FB7B69181C8B
:10281000FFF70CFFBD4606B080BDC04680B586B050
:1028200000AF78607B689B6C3B6100237B613B69F8
:10283000002B01D172B6FEE73B699A6B3B69DB6BFB
:102840009A4201D372B6FEE73B699A6B3B69DB6B38
:102850009A4234D20F23FB183A694521525C1A7010
:102860003A693B1D101C191C0022FFF747FE031C90
:102870007B610F23FB181B785BB201330DD13B69E1
:102880005B6A002B1BD03B692433181C00F0B2FBA1
:10289000031E14D001237B6111E00F23FB181B786A
:1028A0005BB27F2B01D172B6FEE70F23FB181B78BA
:1028B0000133DBB2D9B23B6945229954FFE77B690A
:1028C000181CBD4606B080BD90B58DB004AFF86051
:1028D000B9603B60BB1D1A80BB1D1B889B00181C88
:1028E000FFF7B6F8031C7B617B69002B10D07020CA
:1028F000FFF7AEF8031CFB61FB69002B03D0FB69FB
:102900007A691A6306E07B69181CFFF74DF901E04C
:102910000023FB61FB69002B16D0BB1D1A88F868E9
:10292000B9683C683B6B00937B6B0193FB69029336
:1029300000230393231C00F00FF8FB69181C00F020
:10294000A7F80123BB6102E001235B42BB61BB69C5
:10295000181CBD4609B090BD80B586B000AFF860C8
:10296000B9607A603B60BB6A1A6B7B689B00101C85
:10297000A5211A1C01F027FABB6A1A6B7B68434930
:102980008C4663449B00D3183B613B690722934309
:102990003B613B690722134001D072B6FEE7BB687A
:1029A000002B1FD000237B6114E0BA687B69D31829
:1029B0001878BA6A30217B69D3185B18021C1A7127
:1029C000BA687B69D3181B78002B00D105E07B69BE
:1029D00001337B617B690F2BE7D9BB6A432200215E
:1029E000995403E0BB6A3422002199543B6A042BBA
:1029F00001D904233B62BB6A3A6ADA62BB6A3A6A6B
:102A0000DA64BB6A00221A65BB6A0433181CFFF73C
:102A1000EDF9BB6A1833181CFFF7E8F9BB6ABA6A0C
:102A20001A613B6A0522D21ABB6A9A61BB6ABA6A0A
:102A30005A62BB6A5433181C0021142201F0C3F9F6
:102A4000BB6A6833181C0021042201F0BCF9BB6A80
:102A50006C33181C0021012201F0B5F9BB6A6D220C
:102A6000002199543969FA683B68081C111C1A1C2A
:102A7000FEF7BCFE021CBB6A1A607B6A002B02D008
:102A80007B6ABA6A1A60BD4606B080BDFFFFFF3F91
:102A900080B582B000AF7860FEF744FF294B1B6819
:102AA0005A1C284B1A60284B1B68002B09D1264B57
:102AB0007A681A60234B1B68012B10D100F088FB49
:102AC0000DE0224B1B68002B09D11F4B1B68DA6AF3
:102AD0007B68DB6A9A4202D81B4B7A681A601C4BEF
:102AE0001B685A1C1A4B1A60194B1A687B685A6487
:102AF0007B68DA6A174B1B689A4203D97B68DA6AEB
:102B0000144B1A607B68DA6A131C9B009B189B00AD
:102B1000114A9A187B680433101C191CFFF770F9CE
:102B2000FEF710FF094B1B68002B08D0064B1B68F3
:102B3000DA6A7B68DB6A9A4201D2FEF7E5FEBD469F
:102B400002B080BD782D0020A02C0020842D002014
:102B5000942D0020802D0020A42C002080B584B06E
:102B600000AF78600023FB607B68002B10D00C4B1B
:102B70001B68002B01D072B6FEE700F055F87B68A9
:102B8000181C002100F034FC00F05AF8031CFB6014
:102B9000FB68002B01D1FEF7B7FEBD4604B080BD37
:102BA000A02D002080B584B002AF1849184A002338
:102BB0000093184B0193081C111C3C220023FFF7C3
:102BC00083FE031C7B607B68012B03D100F068FC53
:102BD000031C7B607B68012B0DD172B60E4B01226A
:102BE00052421A600D4B01221A600D4B00221A60EE
:102BF000FEF766FE04E07B68013301D172B6FEE7A2
:102C0000084B1B68BD4602B080BDC046B131001004
:102C1000D83D00109C2D0020982D0020842D0020F0
:102C20007C2D00206405002080B500AF034B1B689D
:102C30005A1C024B1A60BD4680BDC046A02D002024
:102C400080B584B000AF0023FB600023BB603A4B2B
:102C50001B68002B01D172B6FEE7FEF763FE364B10
:102C60001B685A1E344B1A60334B1B68002B5BD118
:102C7000324B1B68002B57D02FE0314BDB68DB68F1
:102C8000FB60FB681833181CFFF712F9FB6804336C
:102C9000181CFFF70DF9FB68DA6A2A4B1B689A4289
:102CA00003D9FB68DA6A274B1A60FB68DA6A131CDF
:102CB0009B009B189B00244A9A18FB680433101C45
:102CC000191CFFF79DF8FB68DA6A204B1B68DB6A6A
:102CD0009A4202D31E4B01221A60194B1B68002B2B
:102CE000CBD1FB68002B01D000F0F2FA194B1B6826
:102CF0007B607B68002B0FD000F03CF8031E02D0F5
:102D0000134B01221A607B68013B7B607B68002BC0
:102D1000F2D1104B00221A600D4B1B68002B03D020
:102D20000123BB60FEF7F0FDFEF70CFEBB68181C2C
:102D3000BD4604B080BDC046A02D0020782D0020E7
:102D4000382D0020802D0020A42C0020A02C002055
:102D50008C2D0020882D002080B582B000AF044B60
:102D60001B687B607B68181CBD4602B080BDC046F6
:102D70007C2D002080B586B000AF00237B614A4BDC
:102D80001B68002B00D084E0484B1B6801333B617B
:102D9000464B3A691A603B69002B17D1444B1B68BC
:102DA0001B68002B01D072B6FEE7414B1B68FB602D
:102DB000404B1A683E4B1A603E4BFA681A603E4B15
:102DC0001B685A1C3C4B1A6000F082FA3B4B1B6894
:102DD0003A699A4249D3364B1B681B68002B04D1D1
:102DE000364B012252421A603FE0314B1B68DB68D0
:102DF000DB68BB60BB685B687B603A697B689A4252
:102E000003D22E4B7A681A602FE0BB680433181C7B
:102E1000FFF74EF8BB689B6A002B04D0BB681833E1
:102E2000181CFFF745F8BB68DA6A254B1B689A4205
:102E300003D9BB68DA6A224B1A60BB68DA6A131CD2
:102E40009B009B189B001F4A9A18BB680433101CF8
:102E5000191CFEF7D5FFBB68DA6A1B4B1B68DB6ADF
:102E60009A4201D301237B61B5E7174B1B68DA6AED
:102E70001449131C9B009B189B005B58012B01D924
:102E800001237B61114B1B68002B01D001237B6167
:102E900004E00F4B1B685A1C0D4B1A607B69181C11
:102EA000BD4606B080BDC046A02D00207C2D002070
:102EB000302D0020342D0020902D0020982D002052
:102EC000802D0020A42C0020A02C00208C2D002080
:102ED000882D002080B582B000AF214B1B68002BED
:102EE00003D0204B01221A6037E01E4B00221A60EB
:102EF0001D4B1B687B6007E07B68002B01D172B61D
:102F0000FEE77B68013B7B6018497A68131C9B00D5
:102F10009B189B005B58002BEED07A68131C9B001B
:102F20009B189B00114A9B183B603B685B685A6882
:102F30003B685A603B685A683B6808339A4204D140
:102F40003B685B685A683B685A603B685B68DA6854
:102F5000074B1A60044B7A681A60BD4602B080BD08
:102F6000A02D00208C2D0020802D0020A42C0020DE
:102F7000A02C002080B582B000AF786039607B68FB
:102F8000002B01D172B6FEE7074B1B6818337A6835
:102F9000101C191CFEF756FF3B68181C012100F09D
:102FA00027FABD4602B080BDA02C002080B584B0B9
:102FB00000AFF860B9607A60FB68002B01D172B68F
:102FC000FEE70B4B1B681833FA68101C191CFEF740
:102FD00017FF7B68002B02D001235B42BB60BA68FD
:102FE0007B68101C191C00F003FABD4604B080BDBC
:102FF000A02C002080B584B000AF78607B68DB68CF
:10300000DB68BB60BB68002B01D172B6FEE7BB6812
:103010001833181CFEF74CFF1E4B1B68002B1DD1EC
:10302000BB680433181CFEF743FFBB68DA6A1A4B0F
:103030001B689A4203D9BB68DA6A174B1A60BB68EF
:10304000DA6A131C9B009B189B00144A9A18BB68F1
:103050000433101C191CFEF7D3FE06E0BB681833BE
:103060000F4A101C191CFEF7CBFEBB68DA6A0D4B29
:103070001B68DB6A9A4205D90123FB600A4B0122D7
:103080001A6001E00023FB60FB68181CBD4604B019
:1030900080BDC046A02D0020802D0020A42C002043
:1030A000382D0020A02C00208C2D002080B582B06F
:1030B00000AF7860054B1A687B681A60044B1A6889
:1030C0007B685A60BD4602B080BDC046902D00208E
:1030D0007C2D002080B586B000AF786039607B68B9
:1030E000002B01D172B6FEE73B68002B01D172B60E
:1030F000FEE7FEF717FC264B1B683B617B685B68AD
:103100003A69D31AFB60234B1B686D229B5C002B32
:1031100007D0204B1B686D220021995401237B614D
:103120002EE03B681B68013302D100237B6127E05E
:103130007B681A68184B1B689A420AD07B685A68E9
:103140003B699A4205D801237B613B6800221A60E3
:1031500016E03B681A68FB689A420CD93B681A680B
:10316000FB68D21A3B681A607B68181CFFF79EFF49
:1031700000237B6104E03B6800221A6001237B612D
:10318000FEF7E0FB7B69181CBD4606B080BDC0465B
:103190007C2D0020A02C0020902D002080B500AFB9
:1031A000024B01221A60BD4680BDC0468C2D002016
:1031B00080B582B000AF786000F04EF8034B1B681A
:1031C000012B01D9FEF7A0FBF6E7C046A42C002096
:1031D00080B582B000AF00237B600CE07A68131CDE
:1031E0009B009B189B00144A9B18181CFEF7E0FDDF
:1031F0007B6801337B607B68042BEFD90F4B181C75
:10320000FEF7D6FD0E4B181CFEF7D2FD0D4B181C19
:10321000FEF7CEFD0C4B181CFEF7CAFD0B4B181C1D
:10322000FEF7C6FD0A4B054A1A600A4B044A1A60AB
:10323000BD4602B080BDC046A42C0020082D002051
:103240001C2D0020382D00204C2D0020642D002046
:10325000302D0020342D002080B582B000AF1AE060
:10326000FEF760FB0F4BDB68DB687B607B68043339
:10327000181CFEF71DFE0C4B1B685A1E0A4B1A60E9
:103280000A4B1B685A1E094B1A60FEF75BFB7B68F2
:10329000181C00F00DF8054B1B68002BE0D1BD4653
:1032A00002B080BD4C2D0020782D0020602D002024
:1032B00080B582B000AF78607B681B6B181CFEF78E
:1032C00073FC7B68181CFEF76FFCBD4602B080BD26
:1032D00080B500AF084B1B681B68002B04D1074B5F
:1032E000012252421A6005E0034B1B68DB681A6832
:1032F000024B1A60BD4680BD302D0020982D002065
:1033000080B582B000AF0A4B1B68002B02D10123AD
:103310007B6008E0074B1B68002B02D102237B6017
:1033200001E000237B607B68181CBD4602B080BDB5
:10333000842D0020A02D002080B584B000AF7860DF
:103340007B68BB600023FB607B68002B44D0254B6F
:103350001B68BA689A4201D072B6FEE7BB681B6D63
:10336000002B01D172B6FEE7BB681B6D5A1EBB680D
:103370001A65BB68DA6ABB68DB6C9A422CD0BB6802
:103380001B6D002B28D1BB680433181CFEF790FD81
:10339000BB68DA6CBB68DA62BB68DB6A0522D21AEA
:1033A000BB689A61BB68DA6A0F4B1B689A4203D903
:1033B000BB68DA6A0C4B1A60BB68DA6A131C9B00A4
:1033C0009B189B00094A9A18BB680433101C191CEF
:1033D000FEF716FD0123FB60FB68181CBD4604B018
:1033E00080BDC046A02C0020802D0020A42C0020F1
:1033F00080B584B000AF78603960234B1B68FB60F8
:10340000224B1B686D2200219954204B1B6804330A
:10341000181CFEF74DFD7B6801330BD13B68002B78
:1034200008D01A4B1B680433194A101C191CFEF7EC
:10343000E7FC26E0FA687B68D318BB60134B1B6877
:10344000BA685A60BA68FB689A4209D2114B1A6886
:103450000E4B1B680433101C191CFEF7F3FC10E024
:103460000D4B1A68094B1B680433101C191CFEF71E
:10347000E9FC0A4B1B68BA689A4202D2074BBA6849
:103480001A60BD4604B080BD7C2D0020A02C002019
:10349000642D0020342D0020302D0020982D002098
:1034A00080B584B002AF00237B6000F0C9FA0E4BF8
:1034B0001B68002B0DD00D490D4A022300930D4BC4
:1034C0000193081C111C78220023FFF7FDF9031C4F
:1034D0007B607B68002B01D172B6FEE77B68181C0D
:1034E000BD4602B080BDC046D42D00202D36001050
:1034F000F03D0010D82D002080B58AB000AFF860F4
:10350000B9607A603B6000237B62FB68002B01D1CD
:1035100072B6FEE7224B1B68002B3BD01423FB182E
:10352000BA681A601423FB187A685A601423FB18CF
:10353000FA689A60BB68052B1FDCFFF7E1FE031EEB
:10354000022B0DD1164B19681423FA183B6B081C7B
:10355000111C1A1C0023FEF79BFD031C7B6219E063
:103560000F4B1A681423FB18101C191C002200238F
:10357000FEF78EFD031C7B620CE0094B19681423D7
:10358000FA183B68081C111C1A1C0023FEF764FE85
:10359000031C7B627B6A181CBD460AB080BDC04616
:1035A000D42D002080B586B002AF786039601E4B04
:1035B0001B68DB68DB68FB60FB680433181CFEF7E4
:1035C00077FCFB6828229B5C1A1C042313401AD04A
:1035D000FB689A697B68D118F8683A687B6800F0E4
:1035E000C3F8031E18D0F9687A6800230093081CFA
:1035F00000210023FFF780FF031CBB60BB68002B8A
:103600000AD172B6FEE7FB6828229B5C0122934335
:10361000D9B2FB6828229954FB681B6AFA68101C0F
:103620009847BD4604B080BDCC2D002080B584B045
:1036300000AF78600823FB18181C00F053F8031C37
:10364000FB60BB68FA68101C191C00F003F800F05E
:10365000CDF8EFE780B584B000AF78603960FFF750
:10366000E3FA0823FB18181C00F05EF8031CFB604B
:10367000BB68002B2DD13B68002B0CD17A68FB680E
:103680009A4208D8FFF7DCFA7A68FB68101C191C0C
:10369000FFF788FF1FE03B68002B08D00F4B1B682B
:1036A0001B68002B01D1012300E000233B600C4B81
:1036B00019687A68FB68D21A3B68081C111C1A1C2E
:1036C000FFF774F8FFF7BCFA031E04D1FEF71CF9EC
:1036D00001E0FFF7B5FABD4604B080BDD02D002053
:1036E000D42D002080B584B000AF78600D4B1B68EE
:1036F0001B68002B01D1012200E000227B681A60C8
:103700007B681B68002B05D1064B1B68DB681B68B8
:10371000FB6001E00023FB60FB68181CBD4604B0A1
:1037200080BDC046CC2D002080B584B000AF78604D
:10373000FFF712FB031CFB600A4B1B68FA689A42F6
:1037400005D200F01FF97B6801221A6002E07B6855
:1037500000221A60034BFA681A60FB68181CBD4609
:1037600004B080BDDC2D002080B586B000AFF860CD
:10377000B9607A603B6000237B61FB68BA685A607D
:10378000FB68FA681A61BA687B689A4212D87A684C
:103790003B68D21AFB689B699A4202D301237B6182
:1037A0001BE0104B1A68FB680433101C191CFEF751
:1037B00049FB12E07A683B689A4206D2BA683B68D5
:1037C0009A4202D301237B6107E0074B1A68FB682A
:1037D0000433101C191CFEF735FB7B69181CBD4611
:1037E00006B080BDD02D0020CC2D002080B58CB03F
:1037F00002AFB3E00823FB181B68002B11DA082383
:10380000FB1804337B627B6A002B01D172B6FEE7A2
:103810007B6A1A687B6A59687B6A9B68081C191C5A
:1038200090470823FB181B68002B00DA96E008235A
:10383000FB189B683B623B6A5B69002B04D03B6AC8
:103840000433181CFEF734FB3B1D181CFFF76CFFFC
:10385000031CFB610823FB181B68092B00D97CE0C3
:103860009A00464BD3181B689F463B6A28229B5CF4
:1038700001221343D9B23B6A282299540823FB182A
:103880005A683B6A9B69D1180823FB185B68386A41
:10389000FA69FFF769FF031E20D03B6A1B6A3A6A88
:1038A000101C98473B6A28229B5C1A1C0423134077
:1038B00014D00823FB185A683B6A9B69D218396AEE
:1038C00000230093081C00210023FFF715FE031CB2
:1038D000BB61BB69002B01D172B6FEE73EE03B6ADB
:1038E00028229B5C01229343D9B23B6A2822995437
:1038F00034E03B6A28229B5C01221343D9B23B6A25
:10390000282299540823FB185A683B6A9A613B6A3B
:103910009B69002B01D172B6FEE73B6A9A69FB698D
:10392000D118386AFA69FB69FFF71EFF16E03B6A97
:1039300028229B5C1A1C0223134004D13B6A181CEA
:10394000FEF732F908E03B6A28229B5C0122934390
:10395000D9B23B6A2822995400E0C046084B1A6845
:103960000823FB18101C191C0022FEF70DFD031E76
:1039700000D03FE7BD460AB080BDC046003E001003
:10398000D42D002080B588B002AF42E02A4B1B68DE
:10399000DB681B687B61284B1B68DB68DB683B616D
:1039A0003B690433181CFEF783FA3B691B6A3A69CA
:1039B000101C98473B6928229B5C1A1C0423134067
:1039C00027D03B699A697B69D318FB60FA687B69E9
:1039D0009A420ED93B69FA685A603B693A691A61A2
:1039E000154B1A683B690433101C191CFEF72AFAA0
:1039F0000FE039697A6900230093081C0021002335
:103A0000FFF77AFD031CBB60BB68002B01D172B6C7
:103A1000FEE7094B1B681B68002BB7D1064B1B68E0
:103A20007B60064B1A68044B1A60044B7A681A6074
:103A3000BD4606B080BDC046CC2D0020D02D002054
:103A400080B500AFFDF76EFF144B1B68002B20D133
:103A5000134B181CFEF7ACF9124B181CFEF7A8F913
:103A6000114B0F4A1A60114B0E4A1A6005201021A3
:103A70000022FEF799FA021C084B1A60074B1B68DC
:103A8000002B06D0054B1A68094B101C191CFEF7B9
:103A900067FEFDF757FFBD4680BDC046D42D002010
:103AA000A42D0020B82D0020CC2D0020D02D0020EA
:103AB000F83D001080B582B000AF78607B6819686F
:103AC0007B681A7B7B680433081C111C1A1CFDF7E9
:103AD0005BFB7B6819687B681A7B7B685B7B081CD7
:103AE000111C1A1CFDF704FE0023181CBD4602B071
:103AF00080BDC04680B500AF034B034A926E0121E2
:103B00008A439A66BD4680BD0000014080B584B0FE
:103B100000AF78600F23FB1800221A700E23FB18E9
:103B200000221A700D23FB1800221A700C23FB18B8
:103B300000221A700B23FB1800221A707B681B7876
:103B400001225340DBB2002B1BD00E23FA180D23A9
:103B5000FB1812781B781343DAB20C23FB181B787E
:103B60001343D9B20F23FB180B22BA1812780A4359
:103B70001A700F23FB181B78002B02D17B680122DF
:103B80001A700F23FB181B78181CBD4604B080BDAB
:103B900090B585B000AF3B1C054A13CA13C3126829
:103BA0001A603B1C181CFDF7C7FBBD4605B090BD55
:103BB000583E001090B583B000AFFB1D00221A7074
:103BC000FC1D1C4B181CFFF7A1FF031C2370FB1DE1
:103BD0001B78002B06D1FC1D174B181CFFF76AFF42
:103BE000031C2370FB1D1B78002B06D1FC1D134BFF
:103BF000181CFFF75FFF031C2370FB1D1B78002BB5
:103C000006D1FC1D0E4B181CFDF7D0FD031C2370C4
:103C1000FB1D1B78002B06D1FC1D0A4B181CFFF75F
:103C200049FF031C2370FB1D1B78181CBD4603B005
:103C300090BDC046E02D0020283E0010383E001008
:103C400050050020483E001080B582B000AF78607B
:103C50000A1CFB1C1A70FB1C1B78034A9A407B68E9
:103C60005A60BD4602B080BD0100010080B582B03F
:103C700000AF78607B681A687B681B7B101C191C7E
:103C8000FFF7E2FFBD4602B080BDC04690B585B0EB
:103C900002AFFC1DFFF78EFF031C2370FB1D1B787A
:103CA000002B00D0FEE71549154A0123009300239D
:103CB0000193081C111C3C220023FEF705FE11494C
:103CC000114A0123009300230193081C111C3C227C
:103CD0000023FEF7F9FD0D490D4A0123009300234F
:103CE0000193081C111C3C220023FEF7EDFDFEF79A
:103CF00059FF0023181CBD4603B090BD153D0010B0
:103D0000683E0010313D0010703E00104D3D001027
:103D1000783E001080B582B000AF7860034B181C6D
:103D2000FFF7A4FF0A20FEF719FFF7E7283E00106F
:103D300080B582B000AF7860034B181CFFF796FF88
:103D40000A20FEF70BFFF7E7383E001080B582B07F
:103D500000AF7860034B181CFFF788FF0A20FEF7BE
:103D6000FDFEF7E7483E00100E4B70B500251E1C07
:103D70000D4CE41AA410A54204D0AB00F3589847A8
:103D80000135F8E7FDF702FD084B00251E1C084C25
:103D9000E41AA410A54204D0AB00F35898470135AB
:103DA000F8E770BD68050020680500206805002060
:103DB00068050020002310B5934203D0CC5CC454A6
:103DC0000133F9E710BD031C8218934202D0197029
:103DD0000133FAE77047000049444C4500000000F9
:103DE0000925630925750925750925750D0A000042
:103DF000546D722053766300546D725100000000C0
:103E00006A3800106A3800106A380010DE38001076
:103E1000F23800102E3900106A3800106A3800108D
:103E2000DE380010F238001000040440800000006A
:103E300000000100000000000004044080000000B9
:103E400000000100010000000004044080000000A8
:103E5000000001000200000000000100000030032B
:103E600000000100000000005461736B300000008E
:103E70005461736B310000005461736B32000000B9
:103E80002C48004700000000000000000000000077
:103E90000000000000000000000000000000000022
:103EA00025480047000000000000000023480047AC
:103EB000234800472348004723480047234800473A
:103EC000234800472348004723480047234800472A
:103ED000234800472348004723480047234800471A
:103EE000234800472348004723480047234800470A
:103EF00023480047234800472348004723480047FA
:103F000023480047234800472348004723480047E9
:103F100023480047234800472348004723480047D9
:103F200023480047234800472348004723480047C9
:103F3000234800479D1000106D18001091190010C3
:103F4000E11900109D1000109D1000109D10001030
:103F50009D1000109D1000109D1000109D1000106D
:103F60009D1000109D1000109D1000109D1000105D
:103F70009D1000109D1000109D1000109D1000104D
:103F80009D1000109D1000109D1000109D1000103D
:103F90009D1000109D1000109D1000109D1000102D
:103FA0009D1000109D1000109D1000109D1000101D
:103FB0009D1000109D1000109D1000109D1000100D
:043FC0009D10001040
:103FC40000D8B8050100000000000448000000000B
:083FD400AAAAAAAA0400000039
:040000051000101DBA
:00000001FF
